:020000040000FA
:100000000A128A11FC2F00308A000408840A820731
:10001000003443346F346E3474346134673465347F
:100020006D343A34203420342034203420342034C9
:040030002034003444
:100A4C00F1008312031386147108880006100D3010
:100A5C00F000F00B2F2D8312031306140800F50081
:100A6C007508F40006300310F40DFF3E031D392DFC
:100A7C00730874077F39803E0A128A115F250A12A7
:100A8C008A110800572DC730F2004C2DF20B4B2D5C
:100A9C004F2D502D0130F0020030031CF103F102F8
:100AAC00572D70087104031D5C2D5D2D492D5E2D95
:100ABC000800F200831203138610720888000610D7
:100ACC00720303196A2D6B2D722D02307206031DF1
:100ADC00702D712D7C2D722D0330F1009730F000AC
:100AEC00F00B762DF10B762D7B2D812D0D30F0003A
:100AFC00F00B7E2D812D8312031306140800FA00CF
:100B0C007608F8007808F9007608F8007808F30001
:100B1C007A080A128A1135250A128A11AA2D770829
:100B2C0084000A128A1103200A128A110A128A11ED
:100B3C0026250A128A110130F8007808F7070130CF
:100B4C00F8007808F907AA2D770884000A128A1190
:100B5C0003200A128A11003A031DB52DB62D952DCE
:100B6C00B72D08000A128A11F5250A128A11F6010E
:100B7C00013083120313A8002808F70000300A1272
:100B8C008A1185250A128A11CB2D0A308312031380
:100B9C00A8002808F9002B08FB002A08FA000330EB
:100BAC00A9002908FC0000300A128A1112270A1227
:100BBC008A11E830F0000330F1000A128A1148253E
:100BCC000A128A11013083120313AA070318AB0A05
:100BDC000030AB07CB2DCB2D0A128A1100286430C4
:100BEC00F0000030F1000A128A1148250A128A110D
:100BFC008316031308108810081188110812881224
:100C0C00081388138316031709120911831603138B
:100C1C00061086106430F0000030F1000A128A11C0
:100C2C0048250A128A1183120313061438300A124B
:100C3C008A115F250A128A110C300A128A115F255B
:100C4C000A128A1101300A128A115F250A128A11BE
:100C5C0002300A128A115F250A128A116430F000E0
:100C6C000030F1000A128A1148250A128A11080074
:100C7C00F601F31F422E432E4B2EF209F309F20A12
:100C8C000319F30AF601F60A4B2EF11F4E2E4F2EC6
:100C9C00552EF009F109F00A0319F10A552E7008C6
:100CAC00710403195A2E5B2E902EF501F50A6A2E4B
:100CBC0001300310F00DF10DFF3E031D5F2E0130CE
:100CCC00F4007408F5076A2EF11F6D2E6E2E5E2E41
:100CDC00702E702E71087302031D762E700872022E
:100CEC00031C792E7A2E812E7008F2027108031CD7
:100CFC00F303F302812E01300310F10CF00CFF3ED4
:100D0C00031D822E0130F502031D8D2E8E2E702EAA
:100D1C00902E902E76080319942E952E9B2EF20968
:100D2C00F309F20A0319F30A9B2E7308F1007208F7
:100D3C00F000A02E0800F601F11FA52EA62EAE2E57
:100D4C00F009F109F00A0319F10AF601F60AAE2EC0
:100D5C00F31FB12EB22EBC2EF209F309F20A0319BD
:100D6C00F30A0130F4007408F606BC2EF701F80102
:100D7C00700871040319C32EC42E012FF501F50A56
:100D8C00D32E01300310F00DF10DFF3E031DC82EC4
:100D9C000130F4007408F507D32EF11FD62ED72E90
:100DAC00C72ED92ED92E01300310F70DF80DFF3EAA
:100DBC00031DDA2E71087302031DE62E70087202F1
:100DCC00031CE92EEA2EF22E7008F2027108031CA5
:100DDC00F303F3027714F22E01300310F10CF00C34
:100DEC00FF3E031DF32E0130F502031DFE2EFF2ED8
:100DFC00D92E012F012F76080319052F062F0C2F42
:100E0C00F709F809F70A0319F80A0C2F7808F1000A
:100E1C007708F000112F080083120313A300FB1BAB
:100E2C00182F1A2F01301B2F0030A0002008A5000E
:100E3C0025080319222F232F292FFA09FB09FA0A57
:100E4C000319FB0A292F7908A0002008F3002308B6
:100E5C000A128A1135250A128A11103083120313D3
:100E6C00A6002730A7000530A0002008A4006D2F95
:100E7C00831203132708F1002608F0007B08F30007
:100E8C007A08F2000A128A11A1260A128A11700835
:100E9C007104031D522F532F852F0130831203131E
:100EAC00A402592F852F0A30F0000030F1002708DA
:100EBC00F3002608F2000A128A11A1260A128A11DE
:100ECC00710883120313A7007008A6006D2F270862
:100EDC00803AFF0080307F02031D762F01302602FE
:100EEC000318792F7A2F3E2F852F852F20300A1249
:100EFC008A1126250A128A110130FC02852F8312D1
:100F0C00031324082507A000A101A10D2108803A94
:100F1C00A20080302202031D952F7C0820020318AA
:100F2C00982F992FA12F02307C0203189E2F9F2FF0
:100F3C007C2FA12FA12F8312031325080319A72F90
:100F4C00A82FAF2F2D300A128A1126250A128A11CA
:100F5C00AF2F831203132708F1002608F0007B083B
:100F6C00F3007A08F2000A128A11A1260A128A11D9
:100F7C007008303E0A128A1126250A128A11831231
:100F8C0003132708F1002608F0007B08F3007A0809
:100F9C00F2000A128A113E260A128A117108FB000D
:100FAC007008FA000A30F0000030F10083120313CD
:100FBC002708F3002608F2000A128A11A1260A1249
:100FCC008A11710883120313A7007008A600270862
:100FDC00803AFF0080307F02031DF62F013026027D
:100FEC000318F92FFA2FAF2FFB2F080083010A12D9
:040FFC008A11B82D71
:04400E00D4E0FFFFFC
:00000001FF
